:020000040804EE
:1000000058E101206902040841480408114304082A
:100010003D480408211C040819A20408000000003F
:10002000000000000000000000000000B101040812
:100030008D2704080000000005020408DB8B04087B
:10004000830204088302040883020408830204086C
:100050008302040883020408C1390408D139040862
:10006000D9390408E1390408E9390408830204088D
:10007000F5220408830204085523040883020408B7
:10008000830204088302040883020408830204082C
:10009000830204088302040883020408F139040877
:1000A000830204088302040883020408830204080C
:1000B00083020408598C0408BD8C040883020408D8
:1000C00083020408830204088302040883020408EC
:1000D000830204087191040883020408DD91040876
:1000E000C93904088302040883020408830204084F
:1000F00083020408830204088302040883020408BC
:1001000083020408096804088302040883020408BF
:10011000830204088302040883020408830204089B
:100120008D23040883020408B12304088302040811
:1001300083020408C9310408830204088302040806
:10014000830204088302040883020408830204086B
:10015000830204081124040883020408719204082D
:10016000830204088302040883020408830204084B
:10017000830204088302040883020408830204083B
:100180008302040883020408DFF810D000F066FE42
:100190000048004775120508AFF3008058E10120C0
:1001A00030BF72B6704762B6704780F308887047F8
:1001B0002A4B19680868B0E8F04F80F30988BFF34C
:1001C0006F8F4FF0000080F311887047000000002F
:1001D00006480068006880F3088862B661B6BFF31D
:1001E0004F8FBFF36F8F00DF00BF00BF08ED00E04F
:1001F000DFF80C00016841F470010160704700BF36
:1002000088ED00E0EFF30980BFF36F8F134B1A689E
:100210001EF0100F08BF20ED108A20E9F04F10608B
:1002200008B44FF0500080F31188BFF34F8FBFF335
:100230006F8F1CF073FA4FF0000080F3118808BC38
:1002400019680868B0E8F04F1EF0100F08BFB0EC56
:10025000108A80F30988BFF36F8F70471C04002059
:10026000EFF30580704700000648804706480047C6
:10027000FEE7FEE7FEE7FEE7FEE7FEE7FEE7FEE756
:10028000FEE7FEE7F18B0408890104082DE9F0413F
:100290000024061B254671F1000605DA012400271B
:1002A000D0EB070067EB0101161E73F1000605DABB
:1002B0000027D2EB0702012567EB030300F028FCBF
:1002C00086460E4617469C46AC4204D00025D0EB2D
:1002D000050E65EB010624B10020D2EB000760EBB0
:1002E000030C704631463A466346BDE8F08140EA69
:1002F00001039B0703D009E008C9121F08C0042AA4
:10030000FAD203E011F8013B00F8013B521EF9D28A
:100310007047D2B201E000F8012B491EFBD27047B2
:100320000022F6E710B513460A4604461946FFF7C1
:10033000F0FF204610BD421E12F8013F002BFBD1FA
:1003400011F8013B02F8013B002BF9D1704730B5A1
:1003500005462A460B4612F8010B13F8014B08B16B
:10036000A042F8D01CB1002802D06D1CF1E728464D
:1003700030BD421C10F8011B0029FBD1801A7047C8
:1003800010B5002200E0521C835C8C5CA34201D1BA
:10039000002BF8D1D8B2E1B2401A10BD30B50446F6
:1003A0000020034600E05B1C934203D2E05CCD5C7E
:1003B000401BF8D030BD034611F8012B00F8012B8B
:1003C000002AF9D11846704770B50F4D00B928685A
:1003D000002412E00A4602E09E4203D0521C137829
:1003E000002BF9D1DAB2224305D02BB124B1002180
:1003F00000F8011B04E00446401C0678002EE9D1F9
:100400002860204670BD0000C80500200FB400B56C
:100410008DB010A909900B9000914FF0FF300A9019
:1004200000200C9005480690054807906A4609A8E8
:100430000F9900F0D5FB0DB05DF814FBFD0B04081F
:100440001B0C04082DE9FF4F087883B09946FF285C
:1004500005D0491C2D2804D00024002008E00020ED
:100460000BE00124F9E700EB800003EB4000491C9E
:100470000B78FF2BF7D104B140420023029314788C
:1004800019461D462D2C01D02B2C04D1521C2D2C8D
:1004900013D000240294AA461478FF2C0FD00A250A
:1004A000A3FB057801FB05814FF0000C03FB0C1149
:1004B000521CE3194AEB0101EEE70124EAE781440B
:1004C00053EA010002D019F5C87F06DA039800212B
:1004D000C0E9001107B0BDE8F08F0025AE4E2F46F1
:1004E000DFF8B882184600F0ACFCCDE90001B9F1A4
:1004F000000002DAC9F1000400E004460023A74A24
:100500001AEB030B42EB045A12E0E00707D02A462D
:1005100033463846414600F0ECF9074688462A46FD
:1005200033461046194600F0E4F905460E466410BD
:10053000002CEAD1DDE90001B9F1000F5A4653461B
:1005400006DA00F00FFC3A46434600F00BFC05E0EB
:1005500000F0CFF93A46434600F0CBF9029A0AB1CF
:1005600081F00041039AC2E90001B3E72DE9FF4F92
:100570001F468DB0D7E901464FF0FF382E20454683
:100580004FF000090B90B9696D1C0E988847396AC5
:10059000824688470028F6D1BAF1FF3F0AD024F4FA
:1005A000D064002E11DDBAF12B0F08D0BAF12D0F57
:1005B0000BD102E0404611B08DE744F48064B96984
:1005C0006D1C0E9888478246761E6946600501D5E7
:1005D0002D2000E02B208DF8000001F1010B0DF122
:1005E000200809E0B9696D1C0E98884782460F986B
:1005F00044F40074761E0560002E02DDBAF1300F5F
:10060000F0D00B998A453ED144F0800406E00F9962
:10061000681CA9F1010944F400740860B9696D1CF3
:10062000761E0E98884782463028F0D02BE00B9932
:100630008A4505D1200603D444F08004761E18E0D4
:1006400050460AF0C7F908B30DF11301761E44F4C1
:1006500000748B4508D2AAF130000BF8010B20067C
:1006600007D5A9F1010003E0200602D409F1010039
:100670008146A00502D50F99681C0860B9696D1CF8
:100680000E9888478246002ED1DC53E0002E51DDC3
:10069000BAF1650F02D0BAF1450F4BD1A00549D58B
:1006A000B9696D1C24F44074761E0E988847824602
:1006B000002E0CDD2B2804D0BAF12D0F07D144F405
:1006C0008074B9696D1C0E9888478246761EE005D5
:1006D00001D52D2100E02B2108F8011BCDF82C803D
:1006E00021E00DF12901761E44F4007488450CD2F6
:1006F000AAF1300010F0FF0088F8000002D10B9939
:10070000884509D908F1010806E0E00501D524482B
:1007100001E042F20F708146B9696D1C0E9888475E
:1007200082460F980560002E04DD50460AF052F90B
:100730000028D6D1F9690E988847FF208BF8000071
:1007400088F800000020069007904B466A4608A9EA
:1007500006A8FFF777FEA00502D46FF001002AE794
:1007600014F0240F0AD0E00714D1DDE9061238682E
:10077000031D3B600068C0E900120BE0DDE90601E3
:1007800000F094F90146E00704D13868021D3A6090
:100790000068016028460EE7000014400000F03FAA
:1007A000F1D8FFFF2DE9FE4F804681EA0300C00F1C
:1007B0000C46009021F0004123F00045B8EB020008
:1007C000A94105D24046214690461C460B460246AA
:1007D00023F00040104347D0270DC7F30A00C3F3AE
:1007E0000A510290401A019040286BDAC3F31300BB
:1007F00040F4801B0098924620B10023D2EB030AFC
:1008000063EB0B0B01985946C0F14002504600F0D3
:10081000B0F906460D4650465946019A00F0C8F90F
:1008200010EB08006141002487EA115284EAE77363
:100830001A4340D0009A62B3019A012A4FEA075244
:1008400015DC001B61EB02014FF0004202EA075287
:10085000CDE90042001C41F5801132462B4600F0E4
:1008600033FA03B0BDE8F08F40462146F9E7001B9C
:1008700061EB0201001C41F5801300185B41201858
:10088000A2F5001747EB030140EAD570B6196D4198
:1008900011E06D084FEA360645EAC0754FEA075287
:1008A000001B61EB0201001C41F5801149084FEA71
:1008B00030000019514132462B4603B0BDE8F04FDD
:1008C00000F0F3B90098012240000023D0EB0202AF
:1008D00063EBE073009821464FEAE074B8EB000048
:1008E00061EB0401E9E783F000435BE781F000413D
:1008F00058E72DE9FE4F81EA030404F0004421F09B
:10090000004100944FF0000B23F0004350EA010433
:100910005ED052EA03045BD0C3F30A54C1F30A5514
:100920002C44A4F2F3340194A0FB0254C1F313014C
:1009300041F48011C3F3130343F4801301FB024419
:1009400000FB034E840A970A44EA815447EA83571E
:10095000A4FB076802958D0A05FB07854FEA932CD7
:1009600004FB0C542705029D4FEA065847EA163748
:10097000B5EB08056EEB070C870E920E47EA811760
:1009800042EA8312A7FB0201B6EB0B0164EB000401
:100990002B0D43EA0C335E1844EB1C50DA465146EB
:1009A000E7FB0201C5F313044FEA0B3343EA145388
:1009B0004FEA0432019C43EA0603A4F10C040294BA
:1009C000009CCDE900B400F07FF903B0BDE8F08FE2
:1009D00000200146F9E730B404469623080021467A
:1009E00004D0B62330BC002200F031B920460021EB
:1009F000F8E7C1F30A5210B5C1F3130140F2FF3317
:100A000041F480119A4201DA002010BD40F23343D4
:100A10009A42A2F2334203DC524200F0B9F810BD10
:100A2000904010BDC1F30A52C1F3130140F2FF33ED
:100A300041F480119A4202DA00200146704740F2E8
:100A400033439A42A2F2334202DC524200F0A0B891
:100A500000F08FB800F0004230F000400AD0C10D25
:100A600001F56071C0F3160042EA0151C208400767
:100A700011437047002001467047000030B5041E46
:100A800071F1000404DB4FF00044404264EB0101CB
:100A9000141E73F1000405DB1C464FF00043524264
:100AA00063EB0403994208BF904230BD01F000435C
:100AB00030B421F0004150EA010206D00A0DA2F53F
:100AC0006072C1F31301002A02DC30BC00207047C1
:100AD000440F44EAC104C100E01830BC00EBC2502E
:100AE00000F0ACB830B50B460146002020220124AE
:100AF00009E021FA02F59D4205D303FA02F5491BEC
:100B000004FA02F52844151EA2F10102F1DC30BD01
:100B10002DE9F05F0546002092469B468846064632
:100B2000814640241BE0284641464746224600F0C5
:100B30002FF853465A46C01A914110D31146184611
:100B4000224600F016F82D1A67EB01084F462246A0
:100B50000120002100F00DF817EB00094E41201E86
:100B6000A4F10104DFDC484631462A464346BDE88D
:100B7000F09F202A04DB203A00FA02F1002070479F
:100B80009140C2F1200320FA03F3194390407047CB
:100B9000202A04DB203A21FA02F00021704721FAD2
:100BA00002F3D040C2F12002914008431946704739
:100BB000202A06DBCB17203A41FA02F043EAE07321
:100BC00006E041FA02F3D040C2F12002914008430E
:100BD000194670470268114413780160184670473F
:100BE000D16004495161044911620021116111462B
:100BF00000F04CB9D50B0408810E0408426842B1DC
:100C0000016811F8013B23B1521EC0E900121846D9
:100C100070470121C160881E704742685AB1C3689D
:100C2000016843B983688B4205D0491E521CC0E954
:100C30000012002070474FF0FF3070470029A8BF16
:100C40007047401C490008BF20F00100704710B4F5
:100C5000B0FA80FC00FA0CF050EA010404BF10BCAA
:100C6000704749B1CCF1200421FA04F411FA0CF1D7
:100C700018BF012121430843A3EB0C01CB1D4FEA10
:100C800000614FEA102042BF002010BC704700EB0B
:100C9000C35010440029A4BF10BC7047401C490039
:100CA00008BF20F0010010BC704710B5141E73F18E
:100CB000000408DA401C41F1000192185B411A431C
:100CC00001D120F0010010BD2DE9F04D92469B4668
:100CD00011B1B1FA81F202E0B0FA80F2203290460E
:100CE000FFF747FF04460F4640EA0A0041EA0B01BE
:100CF00053465A46084313D0114653EA010019D00F
:100D0000C8F140025046FFF743FF05460E465046E5
:100D100059464246FFF72DFF084305D0012004E065
:100D200020463946BDE8F08D0020054346EAE076CE
:100D30002C4337430A986305E40AA0EB080000221D
:100D4000FD0A44EA47540A3002D500200146E9E78B
:100D5000010510196941DDE9084500196941BDE83F
:100D6000F04DA2E72DE9F04D81EA030404F0004BB9
:100D700021F0004514464FF0000A23F0004150EAEC
:100D8000050220D054EA01021DD0C5F30A570246DD
:100D9000C5F31303C1F31300C1F30A5640F48015E1
:100DA00043F48013A7EB0608101BD64608F2FD3863
:100DB00073EB050002D308F1010801E092185B41D2
:100DC000B8F1000F03DA00200146BDE8F08D0020E5
:100DD0004FF48011064684460EE0171B73EB05079F
:100DE00005D3121B63EB050306434CEA010C4908CB
:100DF0004FEA300092185B4150EA0107EDD152EA08
:100E0000030012D082EA040083EA0501084305D0FA
:100E1000101BAB4106D20122002306E000224FF056
:100E2000004302E06FF0010253101AEB06004CEB96
:100E3000085110EB0A0041EB0B01BDE8F04DFFF744
:100E400034BF0EB540F2334202920022CDE90022B7
:100E50001346FFF739FF03B000BD0000064C074DF5
:100E600006E0E06840F0010394E80700984710347A
:100E7000AC42F6D3FFF78CF924970808449708088A
:100E8000C0B24FF4F05100F099B900002DE9F34FD2
:100E90008BB04FF0000801F10C000C464FF0010B35
:100EA00046460DF1080A01906269012101989047B8
:100EB000051E2DD0252D2CD0216A8847C0B162692E
:100EC000012101989047216A88470028F7D1411EE7
:100ED00062690198904700E0761CA1690B988847E9
:100EE000216A88470028F7D1E1690B988847DBE73A
:100EF000A1690B9888470746A84201D1761CD3E721
:100F0000E1690B9888477F1C02D1B8F1000F6FD0C0
:100F100047E1002762693D463946019890472A28F3
:100F200004D162690121019890470125DFF8889278
:100F30006269012101989047A0F130010A290AD283
:100F40004F45E5DC07EB870100EB4107303FDFD47D
:100F500045F01005ECE7E90601D46FF000476C2876
:100F60000AD04C2814D0682815D06A280DD07428CF
:100F70001CD07A281AD01DE062690121019890479F
:100F80006C2802D045F0040514E045F002050DE0A0
:100F900045F020050AE06269012101989047682820
:100FA00002D045F0080505E045F4006562690121BD
:100FB00001989047C4E9015765283DD019DC5828AD
:100FC0007AD00CDC452837D004DC252826D04128EF
:100FD00031D131E046282FD047282CD12CE05B2896
:100FE00077D0612828D063287CD0642823D15AE0A8
:100FF000D1E06F2848D008DC66281DD067281BD0B8
:10100000692821D06E2816D127E0702845D0732892
:1010100068D0752847D078280DD14DE0A1690B988C
:101020008847054625283FF469AFE1690B98884752
:101030006D1C3FF46AAFB4E023466A466FF00100CE
:101040000B99FFF793FA9FE045F040006060A80716
:1010500023464FF0000236D43EE0E8077FF447AF66
:101060002068011D21600068290501D506701BE775
:10107000290701D5068017E7A90703D5F117C0E9AD
:10108000006111E706600FE745F040006060A807C7
:1010900023464FF0080216D41EE040F60E0125EA62
:1010A0000100606016E045F040006060A80723463C
:1010B0004FF00A0207D40FE045F040006060A80737
:1010C00008D5234610226FF001000B99AFF3008082
:1010D0005AE007E0234610226FF001000B99AFF3AE
:1010E000008051E04FF000094F464B46632802D084
:1010F0005B2807D041E02079C00601D40120A06020
:1011000001273AE062690121019890475E2805D1E4
:101110004FF001096269494601989047216939B940
:1011200000210A46534643F82120491C0829FADBCE
:10113000B0B3216969B9C11700EBD16253110AEB51
:10114000830122F01F02821A01200B6890400343A2
:101150000B6062690121019890475D28E8D1B9F1DF
:10116000000F09D00020514651F82020D24341F809
:101170002020401C0828F7DB02AB224600976FF0C6
:1011800001000B99AFF3008000280CDA401C08D155
:10119000BBF1000F05D04FF0FF300DB0BDE8F08F70
:1011A000FFE74046F9E7E90701D108F101080644E5
:1011B0004FF0000B78E60000CCCCCC0C7F2801D996
:1011C000002208E0064A02EB5002C007127800D164
:1011D000120902F00F020120904008407047000001
:1011E0008C95080870B58C1810F8015B15F0070392
:1011F00001D110F8013B2A1106D110F8012B03E0B0
:1012000010F8016B01F8016B5B1EF9D12B0705D4B7
:101210000023521E0DD401F8013BFAE710F8013B00
:10122000CB1A921C03E013F8015B01F8015B521E1C
:10123000F9D5A142D8D3002070BD21B1826842F017
:101240000102826003E0826822F00102826070473E
:101250000021084A1168084A1140D0E900231A43C6
:1012600083681A43C3681A431143044AC2F804133B
:101270007047000004230140E030FCFF00200140E3
:1012800000B59BB00121880505F04EF80121084604
:1012900005F04AF80121080205F086F8202019908F
:1012A00003208DF8680000208DF86B0019A93248E2
:1012B00002F022FF00200090304801903048029058
:1012C000002003904FF4FA600490002005904FF442
:1012D00080600690400007908000089040110990BF
:1012E00040020A9000200B9001200C9000200D90ED
:1012F0000E906946234801F01BFA0121214801F0B4
:10130000D3F8002015904FF47060189000201790CB
:101310004FF44030169015A8FFF79AFF00200F9069
:1013200001208DF840008DF84100002011901390AD
:1013300001208DF850000FA910484C3800F03AF801
:101340000723012205210D484C3800F05DF80121EA
:101350000A484C3800F018F8012108484C3800F0D1
:101360001EF8012105484C38FFF767FF03484C3849
:1013700000F0A6F81BB000BD000002404C20014068
:10138000302000201064024021B1826842F4807253
:10139000826003E0826822F480728260704721B12B
:1013A000826842F40072826003E0826822F4007274
:1013B0008260704730B50246002000235068104C10
:1013C00020400D790C6844EA052420435060906861
:1013D0000C4C2040D1E903542C438D682C434D79AB
:1013E00044EA450420439060D06A20F470000C7DEC
:1013F000641EE4B2234340EA0350D06230BD0000D3
:10140000FFFEFFFCFDF7FFC0F0B504460D460020CF
:101410000021092D11DDE068A5F10A0606EB46075B
:10142000072606FA07F18843A5F10A0606EB4606E9
:1014300003FA06F10843E0600CE0206905EB45077C
:10144000072606FA07F1884305EB450603FA06F17D
:1014500008432061072A0FDA606B561E06EB8607E9
:101460001F2606FA07F18843561E06EB860605FA84
:1014700006F10843606322E00D2A0FDA206BD61FC5
:1014800006EB86071F2606FA07F18843D61F06EBF0
:10149000860605FA06F10843206310E0E06AA2F12F
:1014A0000D0606EB86071F2606FA07F18843A2F110
:1014B0000D0606EB860605FA06F10843E062F0BD6C
:1014C000816841F080418160704710B5FF2000F0D5
:1014D00019F80446552C01D1002010BD5521FF20DC
:1014E00000F03CF8FF2000F00DF80446552C01D127
:1014F0000020F2E70120F0E710B501F013FCFFF740
:10150000E4FF10BD70B50446002601F0E5FC254659
:10151000E11704EB11610912A02202EB410188B22C
:1015200001F0A0FC01F01EFDE11704EB11610912AE
:10153000A4EB012188B201F095FC01F013FD01F04C
:10154000CBFCA12001F08EFC01F00CFD002001F08D
:101550002BFCC6B201F0EAFC304670BD70B5044603
:101560000E4601F0B9FC2546E11704EB11610912A2
:10157000A02202EB410188B201F074FC01F0F2FC00
:10158000E11704EB11610912A4EB012188B201F00B
:1015900069FC01F0E7FC304601F064FC01F0E2FC7C
:1015A00001F0C4FC0A200AF0B5F870BD70B504461D
:1015B0000D461646EE2002F037FEB12002F034FE52
:1015C000232002F031FE200A02F02EFEE0B202F0EB
:1015D0002BFE280A02F028FEE8B202F025FEF0B247
:1015E00002F022FEFF2002F01FFEFC2002F01CFE93
:1015F000FF2002F019FEFF2002F016FE05200AF07F
:1016000089F870BD10B51CF0B8F8044908600120D5
:101610001CF0FBF90249086010BD000084000020A6
:10162000A00000201CB51AF079FD00201E21034601
:101630004FF48072CDE900103AA13D481CF068FCDF
:1016400000201D2103464FF40072CDE9001039A19E
:101650003B481CF05DFC00201C2103464FF48072C7
:10166000CDE9001037A13A481CF052FC00201B21A4
:1016700003468022CDE9001036A13A481CF048FC10
:1016800000201A2103464FF40072CDE9001036A164
:1016900038481CF03DFC0020192103464FF48072AD
:1016A000CDE9001034A13C481CF032FC0020172189
:1016B00003468022CDE9001038A13D481CF028FCEB
:1016C0003C4890F83E01E0B1012802D0022824D124
:1016D00000E000BF0020162103464FF48072CDE9E0
:1016E000001035A13B481CF013FC002015210346D7
:1016F0004FF48072CDE9001037A13D481CF008FC82
:101700000BE00020162103464FF48072CDE9001053
:1017100038A13C481CF0FCFB00BF00BF1AF018FDCC
:101720001CBD0000764750494F5F5461736B000049
:10173000F9BE05087655495F5461736B00000000DF
:101740007DC7050876494E465F5461736B00000003
:1017500099C00508765374617475735F5461736B37
:1017600000000000B5C20508765553425F5461730E
:101770006B00000081C8050876436F6D6D756E695A
:10178000636174696F6E5265736F6C76696E675FC3
:101790005461736B00000000E1A60508764469738C
:1017A00070656E73696E675F5461736B0000000053
:1017B00005BD0508A400002076576966695F426C84
:1017C0007565746F6F74685F5265636976655F54A1
:1017D00061736B008DC8050876576966695F426C56
:1017E0007565746F6F74685F5461736B00000000FF
:1017F00031CA05087645746865726E65745F546118
:10180000736B000015BD05081CB50121202004F0F4
:101810008BFD4FF48070009001208DF804000020B3
:101820008DF8060003208DF8050002208DF80700D2
:101830006946044802F060FC4FF48071014802F0F0
:10184000CFFC1CBD001402407047000010B54FF4DF
:10185000407003F033F8A82009F03AFF07F04EFC7F
:1018600004F09FFC02F0F8FCFFF7CEFF02F03CFE14
:1018700000F020F8FFF740FE08F0F6FC02F06EFEE4
:1018800002F0E4FB002010F035FA022010F032FAEA
:1018900000F05EFC00F08EFB02F0B2FF02A101201E
:1018A0000DF06AFC10BD0000504F574552204F4EBE
:1018B000000000001CB50121642004F035FD40202B
:1018C000009001208DF8040000208DF80600032010
:1018D0008DF8050069461E4802F00EFC4FF4A0701A
:1018E000009001208DF8040000208DF806000320F0
:1018F0008DF805006946174802F0FEFB8020009035
:1019000000208DF8040003208DF8050002208DF8DA
:10191000070069460F4802F0EFFB0120009000200D
:101920008DF8040003208DF8050002208DF80700D3
:101930006946094802F0E0FB0120084908600020E0
:101940000749C1F898020120064908601CBD000043
:1019500000140240001802400008024098824242EF
:1019600000004342A002434270B504460D460021E8
:10197000204600F099FD00BF204600F058FE0028E8
:10198000FAD12946204600F0FFFE0121204600F052
:101990008BFD70BD10B500F02DF90A4890F83E019E
:1019A00048B1012806D002280AD14FF4164000F0B1
:1019B0000BF805E000BF4FF4E13008F0E7FD00BF91
:1019C00000BF10BDA400002010B596B00446012150
:1019D000042004F0A9FC0121202004F0E5FC0121F1
:1019E000880504F0A1FC082206216D4802F0CCFB1A
:1019F000082207216A4802F0C7FBC0201490022089
:101A00008DF854008DF8550000208DF85600012007
:101A10008DF8570014A9624802F06EFB1094002064
:101A2000ADF84400ADF84600ADF84800ADF84C0004
:101A30000C20ADF84A0010A95A4807F065FD0121B5
:101A4000584807F077FC012240F22441554807F03E
:101A500036FD47208DF83C0007208DF83D00002022
:101A60008DF83E0001208DF83F000FA802F0EAFE3D
:101A7000012280214B4807F069FC0122402149489E
:101A800007F064FC484800F01BFD00BF464800F02A
:101A9000CEFD0028FAD14FF0206000904148001D93
:101AA000019042488068029040200390C00004905A
:101AB000002005904FF48060069000200790089069
:101AC00009904FF480300A9000200B9003200C9076
:101AD00000200D900E906946334800F029FE452005
:101AE0008DF83C0007208DF83D0000208DF83E0069
:101AF00001208DF83F000FA802F0A4FE0122102162
:101B0000294800F0F7FD2848603800F0D9FC00BFF4
:101B10002548603800F08BFD0028F9D14FF0206097
:101B200000902048001D019020480068029000208D
:101B300003904FF400700490002005904FF48060F3
:101B4000069000200790089009904FF480300A908A
:101B500000200B9003200C9000200D900E90694601
:101B60001148603800F0E4FD3A208DF83C00072071
:101B70008DF83D0000208DF83E0001208DF83F00DB
:101B80000FA802F05FFE01210748603800F08CFCCE
:101B9000012210210448603800F0ACFD16B010BDE1
:101BA0000008024000140140A064024028300020D8
:101BB00010B50446084988682146FEF7FCFB20461C
:101BC000FEF7D7FB04498881204612F0C1FF024886
:101BD00000F004F810BD00002830002070B5044665
:101BE0002546A9890248FFF7BFFE012070BD00000D
:101BF000A06402401FB500208DF80E008DF80F0084
:101C0000044800900448029004489DE81E001EC04D
:101C10001FBD00003830002038320020283000205E
:101C200000BFFEE718B50B88C35CFF2B15D10B88EE
:101C30005B1CC35CFF2B10D10B889B1CC35CFF2B70
:101C40000BD10B88DB1CC35CFF2B06D19FED150A63
:101C500082ED000A92ED000A18BD002300930B8864
:101C6000DB1CC35C00930B889B1CC35C009C43EA99
:101C7000042300930B885B1CC35C009C43EA042391
:101C800000930B88C35C009C43EA042300939DED02
:101C9000000A82ED000A0B881B1D0B8092ED000AE2
:101CA000DAE700000000000030B50446002008E03C
:101CB00015880544655D0D540D5C05B903E0451CB0
:101CC000A8B29842F4DB00BF108818441080184670
:101CD00030BD10B502460888145C401C105C04EB53
:101CE000002003B20888801C088098B210BD000054
:101CF00070B1012802D002280FD104E00122084966
:101D000081F82F2009E00122054981F82F2004E005
:101D10000022034981F82F2000BF00BF7047000058
:101D2000F40200200146002059B90C4AD27A1AB9AF
:101D30000A4A92F83B200AB1012200E00022104634
:101D40000AE0064AD27D1AB9044A92F847200AB13D
:101D5000012200E0002210467047000064020020CB
:101D60000146002019B9044A92F8530002E0024AE1
:101D700092F85F00704700006402002010B504462E
:101D8000EE2002F051FA052002F04EFAE0B202F025
:101D90004BFAFF2002F048FAFC2002F045FAFF203F
:101DA00002F042FAFF2002F03FFA052009F0B2FCEF
:101DB00010BD70B500254FF4803404E0802004F09D
:101DC0000FFD00B103E0201EA4F10104F6D100BF15
:101DD0000CB9032070BD40F2FF5004F0D7FC284638
:101DE000F8E7000070B5044605E01648056805F000
:101DF000450000B100E0F8E700BF042004F0F0FC6B
:101E000020B1042004F0C2FC032070BD012004F0C6
:101E1000E7FC20B1012004F0B9FC0120F5E70948F6
:101E200024380068A04201D01020EEE740F2FF50B5
:101E300004F0ACFC03482038006808210840C0B218
:101E4000E3E70000342C014070B500264FF48035E4
:101E500005E01148046804F0450000B103E0281EC5
:101E6000A5F10105F5D100BF15B104F0040028B1BA
:101E70000326042004F08AFC304670BD012004F0E3
:101E8000AFFC18B10126012004F080FC40F2FF50A5
:101E900004F07CFC3046F0E7342C014010B505E03E
:101EA0000B48046804F0450000B100E0F8E700BF0B
:101EB000042004F095FC20B1042004F067FC03200A
:101EC00010BD40F2FF5004F061FC0020F8E7000074
:101ED000342C01402DE9F04105460E464FF0000834
:101EE00005E02048076807F0450000B100E0F8E78A
:101EF00000BF042004F074FC28B1042004F046FC68
:101F00000320BDE8F081012004F06AFC20B101202B
:101F100004F03CFC0120F4E7124824380068A84291
:101F200001D01020EDE740F2FF5004F02FFC0D48E7
:101F30002038046804F4604018B9200C3080404612
:101F4000DFE704F4005008B11320DAE704F480401E
:101F500008B11020D5E704F4004008B10F20D0E705
:101F60004046CEE7342C014070B500264FF4803552
:101F700005E00F48046804F0450000B103E0281EA6
:101F8000A5F10105F5D100BF15B104F0040028B199
:101F90000326042004F0FAFB304670BD04F0400034
:101FA00018B10026402004F0F1FB3046F5E70000B0
:101FB000342C014010B509F085F91448A0F29D2198
:101FC000C1F8A00600F50071A0F29D20C0F8A4168B
:101FD0000F4890F83E01012802D002280AD100E003
:101FE00000BF0C49A1F5D960C0F8A816891CC0F83B
:101FF000AC1609E005491939A1F52170C0F8A816F9
:10200000091DC0F8AC1600BF00BF10BD6D0A00204E
:10201000A4000020980E002039B1084A126801235C
:1020200083401A43054B1A6006E0044A12680123F4
:1020300083409A43014B1A607047000000740040CF
:1020400000B587B00121084604F06EF90121480768
:1020500004F08AF91020059003208DF81800022062
:102060008DF81B0005A90A4802F046F800200190EF
:1020700002900390049001A900F00CF801210020C7
:10208000FFF7CAFF0021084600F01EF807B000BDA8
:102090000000024030B5002200230A4C226840F6BE
:1020A000FE748440A243D1E900452C438D682C4343
:1020B000CD6844EA050303FA00F42243014C226090
:1020C00030BD00000074004008B500220092054AAF
:1020D000009200F10802009B1A440092009A1160DD
:1020E00008BD00000074004010B5002417480068C7
:1020F00020F440201549086008460068086004E0A4
:10210000601CC4B2012009F025FB4FF400710F4898
:1021100002F05DF808B1642CF2DB642C01DB0120D5
:1021200010BD002404E0601CC4B2012009F012FBC1
:102130004FF40071054802F04AF808B9642CF2DB4C
:10214000642C01DB0120EBE70020E9E700180240E6
:102150001CB50121402004F0E7F84FF40070009016
:1021600001208DF8040000208DF8060002208DF873
:10217000050001208DF807006946044801F0BCFF06
:1021800000F09AF8FFF7B0FF1CBD000000180240F5
:1021900010B5002404E0601CC4B2012009F0DAFA92
:1021A0004FF40071104802F012F808B1642CF2DB11
:1021B000002404E0601CC4B2012009F0CBFA4FF403
:1021C0000071094802F003F808B9642CF2DB2820FA
:1021D00009F0C0FA4FF40071034801F0F8FF08B1AC
:1021E000012010BD0020FCE70018024070B500245B
:1021F000002506E06006040EFFF7CAFF0443681CD2
:10220000C5B2082DF6DB204670BD00001CB500F0FD
:1022100053F8FFF769FFB0BB002405E0FFF7E6FFC6
:102220000DF80400601CC4B2052CF7DB9DF800001B
:102230009DF8011008449DF8021008449DF8031011
:1022400008449DF8041088422BD19DF8020000EE4E
:10225000100AB8EE400ADFED140A20EE200A1348F7
:1022600080ED010A9DF8000000EE100AB8EE400A69
:10227000DFED0D0A20EE200A0C4880ED020A002056
:102280000B4908800DE0FFE70948008809490988E3
:10229000884204DA06480088401C0549088001206D
:1022A0001CBD0020FCE70000C520803FD0070020B7
:1022B000580200205A02002010B50D48006820F492
:1022C00040200B4908600846006840F48020086000
:1022D0004915074801F084FF142009F01BFA4FF458
:1022E0000071034801F07EFF1E2009F033FA10BD93
:1022F0000018024010B51249124800F0A7F9F0B1D9
:10230000104800F09EF9C0F500700F498880012048
:10231000887300210B4800F0C7F80C49094800F009
:102320008FF84FF40071074800F02EFA012105489C
:1023300000F0BAF80121064800681BF02BFA10BD26
:10234000000800102860024028300020400F0010D4
:102350008400002010B50120094908704FF0C051D9
:10236000084800F073F950B14FF0C051054800F033
:1023700067F8012240F22661034807F0A0F810BD7B
:10238000C4030020586002400048004010B50649D0
:10239000064800F07DF9012805D10CF02BFF024919
:1023A000024800F067F810BD208000101064024061
:1023B00010B54FF08151124800F048F9F0B11048C3
:1023C00000F03FF9C0F500700E4988800120887345
:1023D00000210B4800F068F80B49094800F030F87C
:1023E0004FF40071064800F0CFF90121044800F0D5
:1023F0005BF80121054800681BF0CCF910BD000016
:10240000406402402830002000003D10840000207D
:1024100010B50849084800F019F948B105490648BF
:1024200000F00EF8012240F22661044807F047F858
:1024300010BD000000002020A064024000140140F4
:102440000246094B9A4201D2084801E0064810387A
:1024500001F000531BB1064B0B40C36002E0044B7C
:102460000B4083607047000010640240006002402F
:102470007D0F7D0F0246094B9A4201D2084801E0C8
:102480000648103801F000531BB1064B0B40C360E7
:1024900002E0044B0B408360704700001064024070
:1024A000006002407D0F7D0F21B1026842F0010201
:1024B000026003E0026822F001020260704700003F
:1024C000016821F00101016000210160416081602B
:1024D000C1600161212141614A49884204D13D2105
:1024E000484A103A91608CE046491831884205D13B
:1024F0004FF47461434A103A916082E041493031AF
:10250000884205D14FF474113E4A103A916078E048
:102510003C494831884205D14FF07461394A103A3C
:1025200091606EE037496031884204D13649354ABE
:10253000103AD16065E033497831884204D133499B
:10254000304A103AD1605CE02E499031884204D183
:102550002F492C4A103AD16053E02A49A8318842C9
:1025600005D14FF03D51274A103AD16049E0294941
:10257000884204D13D21274A083A116041E02549AB
:102580001831884205D14FF47461224A083A11602B
:1025900037E020493031884205D14FF474111D4A8B
:1025A000083A11602DE01B494831884205D14FF0AF
:1025B0007461184A083A116023E016496031884274
:1025C00004D11149134A121F11601AE011497831E0
:1025D000884204D10D490F4A121F116011E00D49C4
:1025E0009031884204D10A490A4A121F116008E05A
:1025F0000849A831884204D14FF03D51054A121FC5
:1026000011607047106002403D000020400F002024
:1026100000003D201064024021B1026842F0200217
:10262000026003E0026822F0200202607047014667
:1026300000200A6802F001020AB1012000E0002037
:1026400070470146486880B27047000030B50346C5
:102650000A46002000240B4DAB4201D20A4901E09A
:102660000849103902F000550DB14C6800E00C68C3
:10267000064D2C4004EA02050DB1012000E00020C7
:1026800030BD000010640240006002407D0F7D0FED
:1026900070B50246002000240025124EB24201D23D
:1026A000114B01E00F4B103B104E0E4036B11E2671
:1026B00006EAD124166806EA040502E0566906F027
:1026C000800501F000560EB15C6800E01C68084E01
:1026D000344004EA010616B10DB1012000E00020EB
:1026E00070BD000010640240006002403C0F3C0FCF
:1026F0007D0F7D0F10B501F080034BB122B143690E
:1027000043F08003436103E0436923F080034361A6
:1027100080290BD02AB1036801F01E042343036013
:1027200004E0036801F01E04A343036010BD000031
:1027300010B500220268134B1A40CC680B68234383
:102740004C6923438C692343CC6923430C6A23439C
:102750004C6A23438C6A23434C6B23438C6B234387
:102760001A430260426922F00702D1E90B34234385
:102770001A4342610B6943604B6883608B68C36096
:1027800010BD00003F801CF04160704770470000A2
:10279000134A92F87320012A16D1124A92F8542053
:1027A00052B920B9104AD17282F83B1016E00E4A95
:1027B000D17582F8471011E00B4AD17282F83B10B4
:1027C000D17582F8471009E020B9074AD17282F822
:1027D0003B1003E0044AD17582F8471070470000AF
:1027E000A4000020D0070020F402002010B52DED39
:1027F000048B002468E2FE4890F85400E0B9FC48DD
:102800001930005D012803D0E0B2FFF7A9FA20B12A
:10281000E0B20121FFF7BCFF03E0E0B20021FFF7C7
:10282000B7FF0020F34908550021C4EBC402F0486B
:102830001C3000F822103AE2EF4890F873000128AB
:1028400021D1EC480078EB4908550020FFF76AFADF
:1028500001280CD10121E948C17580F847100120F9
:10286000E649C8720121E54880F83B100BE00021E1
:10287000E248C17580F847100020E049C872002185
:10288000DE4880F83B10DC4800EB0410007810B103
:10289000012816D1CAE0E0B2FFF744FAD849095D31
:1028A000884205D1D748005DD249095D884209D0E8
:1028B000E0B2FFF737FAD2490855CE48005DD1495A
:1028C0000855F3E1E0B2FFF72DFA012803D0C9481B
:1028D000005D012847D1C6480078022843D0C4488B
:1028E0000078012833D1C44890F87200012826D11D
:1028F00014B9C549087002E00120C4490870BE48F7
:1029000090F8730001280ED1B948C08A01280ADC6A
:102910000021C4EBC402B6481C3000F82210E0B21B
:10292000FFF736FF81E00221C4EBC402B0481C303F
:1029300000F82210E0B20121FFF72AFF75E0002025
:10294000AC490855E0B20021FFF722FF6DE00221FB
:10295000C4EBC402A6481C3000F82210E0B20121EA
:10296000FFF716FF61E0A44890F87300012816D124
:10297000A548007801284BD19D48C08A022808DB71
:102980009B48C08A801E9A49C88200209E490870D0
:102990003EE000209649C8829B49087038E09A487A
:1029A0000078012800D100E000200CB9012100E0EE
:1029B0000021084078B18E48C08A012805DB8C4888
:1029C000C08A401E8A49C88202E000208849C88225
:1029D00000208D4908708D480078012800D100E062
:1029E0000020012C01D1012100E00021084078B134
:1029F0007F48C08A012805DB7D48C08A401E7C498B
:102A0000C88202E000207A49C88200207F4908700D
:102A10000020784908550021C4EBC40274481C30DA
:102A200000F82210E0B2FFF7B3FE3FE1C4EBC401AF
:102A30006F481C3010F8210030B101287ED00228E8
:102A40007DD003287CD12AE17148005D20B9E0B235
:102A5000FFF768F9012803D06648005D012870D1AE
:102A60006348007802286CD061480078012869D159
:102A7000614890F8720001287FD15F4800EB041094
:102A800090ED020A10EE101A0846FDF7E3FF9FEDE5
:102A9000610B53EC102BFDF72CFFFDF7C3FFC4EBCC
:102AA000C403534A1C3202EB8302C2E901015248BB
:102AB00000EB041090ED010A10EE101A0846FDF725
:102AC000C9FF9FED540B53EC102BFDF712FFFDF7E0
:102AD000A9FFC4EBC403464A1C3202EB8302C2E9DD
:102AE0000301454800EB041090ED030A10EE101AA4
:102AF0000846FDF7AFFF9FED470B53EC102BFDF79A
:102B0000F8FEFDF78FFFC4EBC403394A1C3202EB19
:102B10008302C2E90501384800EB041090ED010A78
:102B20003E4800EB840080ED000A334890F87300C3
:102B3000012818D12E48C08A012804E0A2E0A9E0AB
:102B4000B2E09AE021E00EDC00202949C882002191
:102B5000C4EBC40226481C3000F82210002025498E
:102B6000085507E009E00221C4EBC40220481C30EC
:102B700000F8221006F0DCF97FE0E0B20021FFF758
:102B800007FE00201B49085577E01B4800EB0410A6
:102B900090ED020A10EE101A0846FDF75BFF9FED5C
:102BA0001D0B53EC102BFDF7A4FEFDF73BFFC4EB10
:102BB000C4030F4A1C3202EB8302C2E901010E4832
:102BC00000EB041090ED010A10EE101A0846FDF714
:102BD00041FF9FED100B53EC102BFDF78AFEFDF724
:102BE00021FFC4EBC403024A1C3202EB830217E04C
:102BF000D007002023020020A4000020640200204F
:102C00003D0000203B0000209B0000209C00002095
:102C10003900002000000000000059408C00002016
:102C2000C2E903012B4800EB041090ED030A10EEFB
:102C3000101A0846FDF70EFF1FED0A0B53EC102B80
:102C4000FDF757FEFDF7EEFEC4EBC403224A02EB8C
:102C50008302C2E905011F4800EB041090ED010A50
:102C60001E4800EB840080ED000A0221C4EBC40280
:102C7000194800F8221006F05BF9E0B20021FFF7D6
:102C800087FD11E0E0B20021FFF782FD002014492A
:102C9000085509E0E0B20121FFF77AFD04E0E0B257
:102CA0000121FFF775FD00BF00BF00BF00BFE0B20C
:102CB000FFF738F810B90A48005D08B1012000E0BC
:102CC000002008490855641C012C7FF794ADBDEC29
:102CD000048B10BDA4000020EC0700208C00002015
:102CE000230200203900002010B54FF480710C48F9
:102CF00001F076FA00F0A0F84FF40071084801F0F6
:102D00006FFA01F007FB4FF48071054801F06AFA91
:102D100001F000FB4FF48071014801F061FA10BD31
:102D2000000402401CB50121022003F0FDFA4FF41B
:102D30004070009001208DF804008DF806000320FB
:102D40008DF8050001208DF807006946064801F05E
:102D5000D3F94FF40071044801F044FA4FF4807144
:102D6000014801F03FFA1CBD0004024010B54FF4C9
:102D700080710C4801F034FA00F05EF84FF40071F5
:102D8000084801F02FFA01F0C5FA4FF480710548A8
:102D900001F028FA01F0BEFA4FF48071014801F009
:102DA0001FFA10BD0004024070B50546002400F073
:102DB0002BF800261BE04FF6FF7000EA44044FF4A6
:102DC0008071104801F00CFA01F0A4FA4FF4807100
:102DD0000C4801F007FA01F09DFA4FF40071094820
:102DE00001F0F5F908B144F00104701C86B2082E18
:102DF000E1DB15B9FFF7BAFF01E0FFF775FF2046E9
:102E000070BD0000000402401CB54FF4007000903B
:102E100000208DF8040001208DF8060003208DF8B5
:102E2000050001208DF807006946024801F064F9A9
:102E30001CBD0000000402401CB54FF4007000905F
:102E400001208DF804008DF8060003208DF80500A0
:102E500001208DF807006946014801F04DF91CBDBD
:102E60000004024070B50546FFF7E6FF00241FE0AE
:102E700005FA04F000F0800028B14FF40071154805
:102E800001F0B0F904E04FF40071124801F0A8F924
:102E900001F040FA4FF480710E4801F0A3F901F0FF
:102EA00039FA4FF480710B4801F09AF9601C84B232
:102EB000082CDDDB4FF40071064801F093F94FF464
:102EC0008071044801F08EF94FF48071014801F0DF
:102ED00087F970BD0004024010B5FFF7ADFF4FF455
:102EE0000071114801F07CF9FFF7A6FF4FF48071E3
:102EF0000D4801F077F901F00DFA4FF400710A481E
:102F000001F070F901F006FA4FF40071064801F083
:102F100067F901F0FFF94FF48071034801F060F99F
:102F200001F0F8F910BD00000004024010B5FFF7F1
:102F300083FF4FF400710A4801F052F901F0EAF9F9
:102F40004FF48071064801F04DF901F0E3F94FF4B8
:102F50000071034801F046F901F0DCF910BD0000F2
:102F60000004024010B500244FF40071124801F033
:102F700039F9FFF749FF01F0CDF94FF480710E48A0
:102F800001F030F901F0C6F907E0601CC4B2FA2C78
:102F900003DDFFF7CBFF012010BD4FF400710648A1
:102FA00001F015F90028F0D14FF48071024801F0CA
:102FB00017F90020F0E700000004024008B53D20AA
:102FC0008DF8000008208DF8010000208DF8020027
:102FD00001208DF80300684601F034FC08BD0000B4
:102FE00001494861704700000090024029B1064A3B
:102FF000D2690243044BDA6104E0034AD269824396
:10300000014BDA61704700000090024030B107497F
:10301000896941F00201054A916105E00349896926
:1030200021F00201014A91617047000000900240C6
:1030300070B50C4613460021124D286000BF18E001
:1030400000EB41124FF00045156044F2F455556015
:10305000C1EBC11505EB450504EB850595605D1ECB
:103060008D4204D900EB41152035D56000E0D060D9
:10307000491C9942E4D3044DE860044D044E356088
:1030800070BD0000EC0300200090024038340020A6
:10309000F003002030B10749896941F40051054A25
:1030A000916105E00349896921F40051014A916168
:1030B000704700000090024030B50C4613460021D6
:1030C0000F4D286000BF15E000EB41124FF4801552
:1030D0001560C1EBC11505EB450504EB8505956051
:1030E0005D1E8D4204D900EB41152035D56000E00E
:1030F000D060491C9942E7D3024D286130BD0000E1
:10310000E80300200090024002680A430260704712
:1031100010B50121480603F017F900214FF00070A7
:1031200003F012F910BD01B581B0002000900198A4
:10313000009002E00098401E009000980028F9D10D
:103140000CBD000008B5002000900848806940F4DC
:103150008010064988610846806900904FF6FF702C
:10316000FFF7E1FF01490098886108BD0090024027
:103170000148006880687047E8030020014608683D
:10318000C0F30D40704700B502460023106800F000
:10319000004058B9106800F4004038B9106800F4D5
:1031A000807018B11046FFF7E9FF0346184600BDCE
:1031B00000200449096801F0010109B1012000E083
:1031C000002070470090024010B501E00EF01AF8A0
:1031D00006480068FFF7D7FF0028F7D14020FFF727
:1031E000FFFE4FF48030FFF7FBFE10BDEC03002024
:1031F0002DE9F04188B004460F464FF00008002545
:1032000000200790B94E029001200190B84805694E
:1032100025F01C0503A803F0E7F8049EB548864294
:1032200005D3B548864202D245F008051AE0B248F7
:10323000864205D3AD48864202D245F00C0511E026
:10324000AA48864203D3AD48864200D20AE0AB4882
:10325000864205D3AA48864202D245F0040501E021
:1032600045F01005A24805614FF4004200213846A0
:1032700000F072FB10B9002001906AE0A148FFF74E
:1032800052FF2068002850D000BF0298401C0290D6
:103290000121384600F034FA00F0040018B99A49C8
:1032A00002988842F1D398490298884202D10020BE
:1032B00001904EE0002002904FF4805200213846E9
:1032C00000F04AFB08B90020019000BF0298401CA2
:1032D00002900121384600F013FA00F0200018B9DE
:1032E000894902988842F1D387490298884202D1DD
:1032F000002001902DE0002002901F21384600F0B0
:10330000FFF9804608F0100018B14FF40060206209
:1033100001E00020206208F0040010B1002060618C
:1033200016E04FF48040606112E0206AC0F3CF00E5
:103330006169C1F34F0140EA01020021384600F003
:103340000BFB08B9002001906FF07F40FFF7EBFE08
:1033500000BF019820B94FF400602062C000606196
:103360006348056869480540D4E901010843E168FC
:1033700008432169084361690843A1690843E16979
:103380000843216A0843616A0843A16A0843E16A65
:103390000843216B0843616B0843054354480560AB
:1033A00005684FF6FF70FFF7BEFE51480560D4E98F
:1033B0000E010843216C0843616C0843A16C08436B
:1033C000E16C0843216D0843616D0843484948603A
:1033D000084645684FF6FF70FFF7A5FE4448456074
:1033E0004349A06D8860E06DC860084685694FF666
:1033F00041700540B4F86010606E40EA0140A16E73
:103400000843E16E0843216F0843616F0843054399
:103410003748856185694FF6FF70FFF784FE3448B1
:103420008561D4E91E0108433149C8610846C56970
:103430004FF6FF70FFF777FE2D48C5613448856968
:1034400034480540D4E920010843D4F888100843E3
:10345000D4F88C100843D4F890100843D4F8941092
:103460000843D4F898100843D4F89C100843D4F8C3
:10347000A010084305432648856185694FF6FF7013
:10348000FFF751FE22488561D4E929010843D4F8A9
:10349000AC100843D4F8B0100843D4F8B41040EA94
:1034A0008100D4F8B810084340F4000018490860BF
:1034B000084605684FF6FF70FFF735FE14480560B3
:1034C000006840F0800012490860084605684FF621
:1034D000FF70FFF728FE0E4805600198012802D111
:1034E00008B0BDE8F0810020FAE7000000879303F0
:1034F00000800240002D3101C00E160200E1F505EA
:1035000080D1F008FFFF0F00FFFF04000F8120FFB4
:1035100000900240233FDEF810B50B794C7943EA66
:103520000422094B03441A64CB781B068C7843EAC7
:1035300004434C7843EA04230C7843EA0402024B28
:1035400003445A6410BD00000080024010B5B0B0C2
:1035500001214FF0606002F0E7FEFFF7D9FD00F0B7
:1035600053F900BFFFF724FE0128FBD001A800F0AB
:1035700065F901200190002008904FF400700B9035
:1035800000200C900F90129014901590169021909E
:103590004FF0007022900011249000202690279078
:1035A00004202990C0052A9040122B9080012C9075
:1035B00040122D9040002F90002101A8FFF718FE27
:1035C000C4B2012C03D101210248FFF70FFD2046B0
:1035D00030B010BD4000010038B504460020009016
:1035E00034B10C48006840F004000A49086005E066
:1035F0000848006820F00400064908600548006893
:1036000000904FF6FF70FFF78EFD024900980860AA
:1036100038BD00000080024038B50446002000900C
:1036200034B10C48006840F008000A49086005E021
:103630000848006820F0080006490860054800684E
:1036400000904FF6FF70FFF76EFD0249009808608A
:1036500038BD00000080024010B50A480168002013
:103660000EF0DEFB0848016800200EF0D9FB074889
:10367000016800200EF0D4FB0548016800200EF020
:10368000CFFB10BDB4030020B8030020BC03002012
:10369000C003002010B5A02100200EF0D3FB144978
:1036A0000860A02100200EF0CDFB1249086041F611
:1036B000C45100200EF0C6FB0F49086041F6C4510A
:1036C00000200EF0BFFB0D4908600948006840B1BA
:1036D0000848006828B10848006810B1084600682A
:1036E00018B9FFF7B9FF012010BD0020FCE700006A
:1036F000B4030020B8030020BC030020C003002056
:1037000018B502460B4600210020009015480169BB
:1037100001F01C014FF4784000EAC22001434FF44D
:10372000F86000EA8310014321F0020141F0010139
:103730000C48016100BF0098401C009009480169D5
:1037400001F0010018B1084C0098A042F3D3064CD8
:103750000098A04201D1002018BD0248406980B203
:10376000FAE7000000800240FFFF04001EB50021C0
:103770000022009201920292214A1268126802F01D
:10378000004282B1002200921E4A526902F0800279
:1037900022B180221B4B5A6100229A609DE81C00D6
:1037A00080E81C001EBD164A1268126802F400422E
:1037B000B2B9134A1268126802F4807282B1104AD8
:1037C0001268126802F4007252B10D4A126812684F
:1037D000C2F30D42111F0A4A12689268019200E07A
:1037E00000210091064A12680292054A1268D268C6
:1037F000034B1A609DE81C0080E81C0000BFD1E765
:10380000EC030020009002400348006840F00100F3
:1038100001490860704700000090024010B5012087
:10382000FFF7FAFE0120FFF7D7FEFFF78BFC012020
:10383000FFF730FC0120FFF7E9FB10BD012101601B
:10384000002141608160C16001614FF480414161AC
:1038500000218161C1614FF4006101620021416278
:103860008162C162016341638163C163402101647C
:103870002021416400218164C16401654165816545
:10388000C16501668021416600218166C1660167CC
:1038900041678167C1674FF08061C0F880104910AF
:1038A000C0F884100021C0F888104FF40011C0F84F
:1038B0008C100021C0F89010C0F89410C0F8981037
:1038C000C0F89C10C0F8A0104FF00071C0F8A41010
:1038D0004912C0F8A8108901C0F8AC104912C0F80C
:1038E000B0100021C0F8B410C0F8B8107047000044
:1038F000014617480068006800F0004008B1002049
:103900007047C1F30C00124A1268506010480068FA
:10391000006840F040500E4A126810600C48006881
:10392000006840F000400A4A126810600948406987
:1039300000F0040020B10420064A506100205060CD
:1039400003480068C068024A10600120D8E7000000
:10395000E80300200090024038B503460C460021E1
:10396000002000901448016901F01C014FF47840D8
:1039700000EAC32001434FF4F86000EA84100143D9
:1039800041F0020141F001010B484261016100BFB9
:103990000098401C00900848016901F0010018B12E
:1039A000064D0098A842F3D3044D0098A84201D1D7
:1039B000002038BD0120FCE700800240FFFF04002A
:1039C00010B500F067F810BD10B500F063F810BD39
:1039D00010B500F05FF810BD10B500F05BF810BD39
:1039E00010B500F057F810BD10B500F053F810BD39
:1039F00010B500F04FF810BD3EB50121880302F06C
:103A0000D3FC00242FE0194A02EBC4029178174A34
:103A100002EBC402507804F083FB144800EBC400AE
:103A20004068009000208DF804000C208DF80500FF
:103A300001208DF80600684600F0A8F80B4800EB5E
:103A4000C400C0788DF8080004F11000C0B28DF8F1
:103A5000090000208DF80A0001208DF80B0002A853
:103A600000F0F0FE641C062CCDDB3EBD6C03002094
:103A70000149086070470000143C014001460020E5
:103A8000034A12680A400AB1012000E00020704792
:103A9000143C014010B53B4804683B484068A042D4
:103AA0000BD12046FFF7EAFF012806D102F01CFDEA
:103AB000FEF79CFE2046FFF7DBFF3348C068A042BC
:103AC0000BD12046FFF7DAFF012806D102F00CFDEA
:103AD000FEF78CFE2046FFF7CBFF2B484069A04243
:103AE0000BD12046FFF7CAFF012806D102F0FCFCEB
:103AF000FEF77CFE2046FFF7BBFF2348C069A042CB
:103B00000BD12046FFF7BAFF012806D102F0ECFCEA
:103B1000FEF76CFE2046FFF7ABFF1B48406AA04251
:103B20000BD12046FFF7AAFF012806D102F0DCFCEA
:103B3000FEF75CFE2046FFF79BFF1348C06AA042D9
:103B40000BD12046FFF79AFF012806D102F0CCFCEA
:103B5000FEF74CFE2046FFF78BFF0B48406BA04260
:103B60000BD12046FFF78AFF012806D102F0BCFCEA
:103B7000FEF73CFE2046FFF77BFF2046FFF778FF6D
:103B800010BD0000143C01406C03002000212349BB
:103B90008279002A3AD00A46126803689A430B4693
:103BA0001A600A1D126803689A430B1D1A60027995
:103BB00011440A6803681A430A60184A08321268F6
:103BC00003689A43154B08331A601A1D126803687C
:103BD0009A43124B0C331A604279102A0ED11A1FE5
:103BE000126803681A430D4B08331A601A1D1268D5
:103BF00003681A43094B0C331A600DE007494279F8
:103C000011440A6803681A430A6005E00279114406
:103C10000A6803689A430A6070470000003C01404C
:103C200008B54FF4407000F049FE38208DF80000D0
:103C30000D208DF8010000208DF8020001208DF884
:103C40000300684600F0FEFD002208211048FEF740
:103C500051FD012210210E48FEF74CFD01210C48B8
:103C6000FEF722FC0B490A48FEF704FC0A49084803
:103C7000FEF700FC04210648FEF7FCFB0221044885
:103C8000FEF7F8FB80210248FEF7F4FB08BD0000B8
:103C900010640240208000101040001010B50A4847
:103CA0000068C0B258B100BF5021EFF3118081F31A
:103CB0001188BFF34F8FBFF36F8F00BF10BD18F097
:103CC0002DFA0020FAE7000004ED00E010B50446EC
:103CD00005480068C0B220B100BF84F3118800BF5E
:103CE00001E018F035FA10BD04ED00E000B587B032
:103CF0000121022002F018FB0121080302F054FB0D
:103D00003820059002208DF8180000208DF81A0048
:103D100003208DF8190001208DF81B0005A920480B
:103D200000F0EAF9052203211D4800F02DFA0522D2
:103D300004211B4800F028FA05221146184800F01B
:103D400023FA0121080302F03FFB00214FF48050C9
:103D500002F03AFB0020ADF800004FF48270ADF89D
:103D600002000020ADF804000220ADF8060001209A
:103D7000ADF808004002ADF80A003820ADF80C009C
:103D80000020ADF80E000720ADF810006946054888
:103D900004F0A2F90121034804F084F907B000BD42
:103DA000000402400030014010B5044600BF02216B
:103DB0000A4804F083F90028F9D02146074804F0A6
:103DC00089F900BF0121054804F078F90028F9D0ED
:103DD000024804F07CF9C0B210BD00000030014080
:103DE00010B50446074800884FF6C77108400549DA
:103DF000088008460088204308800121014804F01B
:103E000051F910BD003001402DE9FC4107460D4637
:103E10000026002400200090019008205B490860E3
:103E200010204860402088600020C8604FF4806007
:103E30000861084602F020FD1020FDF7D3FF04467C
:103E400014B12046BDE8FC815148008800044F4968
:103E5000086037204860402088600020C8604FF428
:103E600080600861084602F007FD3720FDF7BAFFC1
:103E700004460CB12046E5E74FF0FF3045490860A5
:103E800008204860302088600220C8600020086157
:103E900001204861084602F089FC00203B49086087
:103EA00033204860402088600020C8604FF4806064
:103EB0000861084602F0E0FC3320FDF793FF04465A
:103EC0000CB12046BEE70CE04FF4001002F088FC75
:103ED00038B1314800684DF82600761C022E00D318
:103EE00007E02D484C38006840F22A61084000285D
:103EF000EAD000BF082002F073FC20B1082002F0D5
:103F000045FC04209EE7022002F06AFC20B102205A
:103F100002F03CFC022095E7202002F061FC20B179
:103F2000202002F033FC06208CE74FF4007002F0F2
:103F300057FC28B14FF4007002F028FC072081E7FD
:103F400040F2FF5002F022FC00980006009901F4B4
:103F50007F4140EA0120009901F47F0140EA1120ED
:103F6000009940EA1160686001980006019901F427
:103F70007F4140EA0120019901F47F0140EA1120CC
:103F8000019940EA1160286020465BE7C8AE012035
:103F9000A8040020DCAE0120802C014008B58DED86
:103FA000000A009AD3B20A888354009AC2F3072306
:103FB0000A88521C8354009AC2F307430A88921C51
:103FC0008354009A130E0A88D21C83540A88121D47
:103FD0000A8008BD7CB50025002007E000EB400109
:103FE000194A52F821100D43411CC8B20C28F5DBC8
:103FF0000121284602F098F900208DF804000120E4
:104000008DF8060003208DF80500002418E004EB6D
:1040100044000D4901EB8000807A8DF8070004EB25
:10402000440001EB80000089009004EB4401064A43
:1040300002EB81014868694600F05EF8601CC4B27A
:104040000C2CE4DB7CBD00006402002010B5FFF7FF
:10405000C1FF00F003F8FFF7CFFC10BD7CB50025D1
:10406000002007E000EB4001214A52F821100D43E7
:10407000411CC8B20A28F5DB0121284602F054F998
:1040800001208DF8040000208DF8060003208DF833
:10409000050000208DF80700002426E004EB440012
:1040A000144901EB8000807A8DF8070004EB44008E
:1040B0000F4901EB80000089009004EB44010C4A99
:1040C00002EB81014868694600F016F804EB4402EF
:1040D000074B03EB8202118904EB440203EB8202DB
:1040E000506800F07FF8601CC4B20A2CD6DB7CBD9F
:1040F000F402002064020020F0B50A4600210023EB
:10410000002400BF3DE0012505FA01F3156805EA2A
:1041100003049C4234D105684F000326BE40B543DA
:10412000056015794E00B540066835430560157980
:10413000012D02D01579022D16D185684F00032676
:10414000BE40B543856055794E00B540866835431D
:104150008560456801268E40B5434560456896797F
:104160008E40B6B235434560C5684F000326BE4059
:10417000B543C560D5794E00B540C6683543C560C6
:10418000491C1029BFD3F0BDF0B5002300244D0712
:10419000ED0E02FA05F3CE1000F1200555F8265079
:1041A0004E07F70E0F26BE40B543CF1000F1200694
:1041B00046F82750CE1000F1200555F8265045EA64
:1041C0000304CE1000F1200545F82640F0BD02465C
:1041D000002013690B400BB1012000E00020704764
:1041E000418370470183704710B5EE2000F01CF842
:1041F000822000F019F8FF2000F016F8FC2000F0F3
:1042000013F8FF2000F010F8FF2000F00DF8052053
:1042100007F080FA10BD000002480068401C014908
:1042200008607047D003002010B5044621460948B5
:1042300005F0D9F900BF8021064805F009F90028EA
:10424000F9D000BF4021034805F002F90028F9D059
:1042500010BD00000010014000B587B001210846E4
:1042600002F062F80121102002F09EF8264805F0C5
:1042700077F8072209212548FFF786FF07220A2140
:104280002248FFF781FF4FF4C060049002208DF8B0
:1042900014008DF8150000208DF8160001208DF80F
:1042A000170004A91948FFF727FF4FF4E1300090E9
:1042B0000020ADF80400ADF80600ADF80800ADF838
:1042C0000C000C20ADF80A0069460F4805F01CF9F7
:1042D00001210D4805F02EF8012240F225510A482F
:1042E00005F0EDF825208DF818000C208DF8190048
:1042F00000208DF81A0001208DF81B0006A800F0A0
:10430000A1FA07B000BD000000100140000002400B
:1043100000BFFEE710B5022007F01CFA10BD10B573
:1043200014880855041213885B1CCC5413889B1CFA
:10433000138010BD1CB50446002001900090224857
:1043400000880004214908600D20486040208860F2
:104350000020C8604FF480600861084602F08CFAC3
:104360001B480068009002E019480068009000981F
:1043700000F045000028F7D0012002F031FA20B10A
:10438000012002F003FA01201CBD042002F028FAEB
:1043900020B1042002F0FAF90320F5E70C48243894
:1043A00000680D2801D01020EEE740F2FF5002F027
:1043B000EDF907482038006801900198C0F34320C8
:1043C00020700020E0E70000A8040020C8AE012013
:1043D000342C01401CB5002401214D2001F0A4FF24
:1043E0000121880301F0E0FF012003F093FE862005
:1043F000009003208DF8050002208DF804000020B5
:104400008DF806008DF8070069463148FFF774FE05
:104410000B2201212E48FFF7B7FE0B2202212C4868
:10442000FFF7B2FE0B2207212948FFF7ADFE32202D
:10443000009069462748FFF75FFE0B2201212548BF
:10444000FFF7A2FE0B2204212248FFF79DFE0B225C
:1044500005212048FFF798FE4FF4D04000906946B0
:104460001D48FFF749FE0B2211461B48FFF78CFE43
:104470000B220D211848FFF787FE0B220E2116484C
:10448000FFF782FE0820009003208DF80500012030
:104490008DF8040000208DF806008DF807006946AD
:1044A0000E48FFF729FE00200D490860322007F072
:1044B00031F901200B49C1F88C02FEF77FFDFFF7AF
:1044C00045F804460CB901201CBD0020FCE70000A3
:1044D000000002400008024000180240000C0240A8
:1044E0008C824142008041421CB50121202001F014
:1044F0001BFF4FF4C060009001208DF804000020E5
:104500008DF8060003208DF8050002208DF80700C5
:1045100069460348FFF7F0FD002000F003F81CBDDA
:104520000014024010B5044654B14FF480610A48AB
:10453000FFF758FE4FF400710748FFF751FE09E0FE
:104540004FF480610448FFF74BFE4FF400710248BE
:10455000FFF748FE10BD00000014024008B54FF4FC
:10456000B6720021A34805F0ABFEA248007855289A
:104570007DD1A04840785528FAD1022000906946A4
:104580009C48FDF7A6FB9C49087069469948FDF7D1
:1045900049FB994880ED010A69469648FDF742FBC0
:1045A000954880ED020A69469248FDF73BFB924828
:1045B00080ED030A69468F48FDF78BFB8E4908742E
:1045C00069468C48FDF72EFB8B4880ED050A69464D
:1045D0008848FDF727FB884880ED060A694685482C
:1045E000FDF720FB844880ED070A69468148FDF706
:1045F00019FB814880ED110A69467E48FDF712FBE0
:104600007D4880ED120A69467A48FDF70BFB7A482F
:1046100080ED080A69467748FDF704FB764880ED8F
:104620000A0A69467348FDF7FDFA734880ED090AE6
:1046300069467048FDF7F6FA6F4880ED0B0A694647
:104640006C48FDF7EFFA6C4880ED0C0A6946694842
:10465000FDF7E8FA684880ED0E0A69466548FDF7FF
:10466000E1FA654880ED0D0A6946624800E0BEE067
:10467000FDF7D8FA604880ED0F0A69465D48FDF7FE
:1046800028FBC1B25C4880F8401069465948FDF7E4
:10469000C9FA594880ED140A69465648FDF7C2FA2E
:1046A000554880ED140A69465248FDF7BBFA524856
:1046B00080ED140A69464F48FDF7B4FA4E4880ED84
:1046C000140A69464B48FDF7ADFA4B4880ED180ACD
:1046D00069464848FDF7A6FA474880ED180A69463A
:1046E0004448FDF79FFA444880ED180A694641485E
:1046F000FDF798FA404880ED180A69463D48FDF7F5
:10470000E8FA00B23C49A1F8700069463948FDF763
:10471000E0FA394981F8720069463648FDF7D9FA5E
:10472000C1B2354880F83E1114236A4600F1740185
:104730003048FDF7B9FA14236A462F4988312D48CD
:10474000FDF7B2FA14236A462B499C312948FDF73C
:10475000ABFA14236A462849B0312648FDF7A4FA7B
:1047600069462448FDF7B5FA01462348A0F8C4106D
:1047700014236A4600F581711E48FDF795FA14234B
:104780006A461E491B48FDF78FFA14236A461B49E7
:1047900014311848FDF788FA14236A4617493C3942
:1047A0001448FDF781FA14236A4614492839114840
:1047B000FDF77AFA14236A46104950390D48FDF77F
:1047C00073FA14236A460D492A310A48FDF76CFA38
:1047D00014236A4609493E310648FDF765FA6946E1
:1047E0000448FDF776FA044981F8730001E001F00E
:1047F000E9FE08BD64060020A4000020BA010020E4
:1048000010B503F05FFE0B48007808B1002010BD22
:104810000020044609E004EB8401074A02EB810012
:1048200003F03AFE601C80B20446042CF3DB00BFA8
:10483000EDE70000C00500207005002000BFFEE786
:104840007047000070B5002100230F22C4781CB30C
:10485000174C246804F4E064C4F5E064C4F3072151
:10486000C1F10404E3B20A4144789C40E1B2847887
:10487000144021430C07210E0E4C05786155047835
:1048800004F01F050124AC4005786D11AD0005F161
:10489000E025C5F8004109E0047804F01F05012473
:1048A000AC40054D0678761145F8264070BD0000F5
:1048B0000CED00E000E400E080E100E0024901438B
:1048C000024A1160704700000000FA050CED00E09C
:1048D000024A0A400243024B1A60704780FFFF1FE2
:1048E00008ED00E0F0B52DED048B85B006460D46D1
:1048F0001446102E81F01580DFE816F0100012002B
:1049000013003601A7046D05870599050007AB055F
:10491000BE05940601072C076607AE0701F001B833
:10492000FCE7062D42D006DC062D1AD2DFE805F0A2
:1049300019101A242831192D5ED004DC072D42D01D
:10494000142D0ED148E01A2D71D01B2DF9D1ABE0FA
:104950000320F24908700220F14908700F2003F08B
:10496000C7FFFFE00B20ED4908700220EC490870FA
:104970000F2003F0BDFFF5E0052003F0B9FFF1E0E3
:104980001CB10120E749087602E00020E5490876DD
:10499000E8E03CB1E34890F8540018B90120E1493F
:1049A000487602E00020DF494876DBE03CB1DD4894
:1049B00090F8540018B90121DA48817602E000210C
:1049C000D8488176CEE01CB10120D649C87602E0F5
:1049D0000020D449C876C5E04CB10120D14981F806
:1049E0005400002048760021CE48817603E0002064
:1049F000CC4981F85400B5E06CB3CA48007802286D
:104A00002CD0C8480078012821D1C74890F87200FE
:104A1000012818D1C44890F87300012808D1C14872
:104A2000C08A02280BDA0020BE49C88207E016E0DF
:104A3000BC48C08A012802DA0020BA49C882012095
:104A4000BA4908700AE00020B849087006E0012061
:104A5000B649087002E00020B449087082E0FCB159
:104A6000B048007802281ED0AE480078012813D143
:104A7000AD4890F8720001280AD1AA48C08A0128DE
:104A800002DA0020A749C8820120A84948700AE03C
:104A90000020A649487006E00120A449487002E0C1
:104AA0000020A24948705DE0F4B3A1480088401C92
:104AB0009F490880084600880A2852DB0A2003F034
:104AC00017FF0A209B49088000209949088000228E
:104AD00004219848008803F06EFE002205219548C5
:104AE000008803F068FE002206219248008803F047
:104AF00062FE002207218F48008803F05CFE00223E
:104B000008218C48008803F056FE002209218948BC
:104B1000008803F050FE00220A218648008803F036
:104B20004AFE00220B2100E01BE08248008803F0CF
:104B300042FE00220C217F48008803F03CFE002248
:104B40000D217C48008803F036FE00220E217948B2
:104B5000008803F030FE002212217648008803F01E
:104B60002AFE00BF00BFD9E6A81E21281BD2DFE81D
:104B700000F01125294765831B1A1A1A1A1AA1F386
:104B8000F4F1F0EF1A1A1A1A1AEEEDECEBEAE9E872
:104B90001AE7D4000B2061490870032060490870AF
:104BA0000F2003F0A5FE4EE304205C4908700320AB
:104BB0005B4908700F2003F09BFE44E30CB1FFF744
:104BC000CDFC40E314B101205749087056480078E5
:104BD000012800D100E00020024604215548008849
:104BE00003F0BDFD50480078012801D0012000E00D
:104BF0000020024605214F48008803F0B0FD22E363
:104C000014B100204849087047480078012800D1B5
:104C100000E00020024604214648008803F09FFD82
:104C200041480078012801D0012000E00020024620
:104C300005214048008803F092FD04E314B10120EF
:104C4000394908743848007C012800D100E0002070
:104C5000024606213748008803F081FD3248007C77
:104C6000012801D0012000E0002002460721314840
:104C7000008803F074FDE6E214B100202A490874AC
:104C80002948007C012800D100E0002002460621CE
:104C90002848008803F063FD2348007C012801D0E8
:104CA000012000E00020024607212248008803F08E
:104CB00056FDC8E284B31C4890ED010A10EE101AAC
:104CC0000846FBF7C7FE41EC180B9FED1B0B53EC9E
:104CD000102BFBF7D3FE1FD2134890ED010A10EE04
:104CE000101A0846FBF7B6FE41EC190B9FED120BAC
:104CF00053EC102BFBF7F7FD41EC180BFBF7D6FE3E
:104D0000094948600846D0ED010AB0EE600A0A2160
:104D10000848008803F0D6FE95E265E229020020EB
:104D20002A020020D0070020A40000202302002037
:104D300026020020140200209A9999999999A93F76
:104D400012E226E105E1E4E0C5E0A6E093E07BE0C5
:104D500058E024E0BFE100E06FE1FCB1FC4890EDD9
:104D6000010A10EE101A0846FBF774FE41EC190B0D
:104D70001FED0F0B53EC102BFBF714FD41EC180B40
:104D8000FBF794FEF24948600846D0ED010AB0EE08
:104D9000600A0A21EF48008803F094FE53E284B3CE
:104DA000EB4890ED050A10EE101A0846FBF752FE8C
:104DB00041EC180B1FED200B53EC102BFBF75EFEA4
:104DC0001FD2E34890ED050A10EE101A0846FBF7D3
:104DD00041FE41EC190B1FED280B53EC102BFBF798
:104DE00082FD41EC180BFBF761FED949486108468A
:104DF000D0ED050AB0EE600A0D21D648008803F018
:104E000061FE20E2FCB1D24890ED050A10EE101AC6
:104E10000846FBF71FFE41EC190B1FED390B53EC55
:104E2000102BFBF7BFFC41EC180BFBF73FFEC8490A
:104E300048610846D0ED050AB0EE600A0D21C5486C
:104E4000008803F03FFEFEE1A4B1C148B0F9700054
:104E500001280FDDBE48B0F87000401E00B2BC490A
:104E6000A1F870000846B0F970201821B9480088F0
:104E700003F074FEE7E17CB1B548B0F87000401C67
:104E800000B2B349A1F870000846B0F970201821AB
:104E9000B048008803F062FED5E1DCB10120AC49E6
:104EA00081F8720001221B21AA48008803F057FCF8
:104EB00000221C21A748008803F051FC00221B217E
:104EC000A448008803F077FC01221C21A148008837
:104ED00003F071FCB7E1DCB100209D4981F872005C
:104EE00000221B219B48008803F039FC01221C2171
:104EF0009848008803F033FC01221B219548008864
:104F000003F059FC00221C219248008803F053FC56
:104F100099E11CB100218E4880F840108C4890F82F
:104F2000400008B9012000E0002002461D21894808
:104F3000008803F014FC864890F8400008B1012076
:104F400000E0002002461E218248008803F007FC92
:104F500079E11CB101217E4880F840107C4890F82E
:104F6000400008B9012000E0002002461D217948D8
:104F7000008803F0F4FB764890F8400008B1012067
:104F800000E0002002461E217248008803F0E7FB83
:104F900059E114B301206E4981F873000022062103
:104FA0006C48008803F007FC00220721694800884C
:104FB00003F001FC00220D216648008803F0FBFB92
:104FC000002212216348008803F0F5FB0022132120
:104FD0006048008803F0EFFB21E000205C4981F885
:104FE0007300012206215B48008803F0E4FB0122E4
:104FF00007215848008803F0DEFB01220D215548A7
:10500000008803F0D8FB012212215248008803F0E7
:10501000D2FB012213214F48008803F0CCFB4C48FF
:1050200090F87300012800D100E0002002461F2103
:105030004848008803F093FB05E1A4B3444890ED91
:10504000110A10EE101A0846FBF704FD41EC180B8C
:105050009FED410B53EC102BFBF710FD3AD23C486F
:1050600090F8400000BB3A4890ED110A10EE101A7B
:105070000846FBF7EFFC41EC190B1FEDD10B53EC8D
:10508000102BFBF730FC41EC180BFBF70FFD304900
:1050900048640846D0ED110AB0EE600A0B212D4895
:1050A000008803F00FFD15E0294890ED110ADFEDAF
:1050B0002C0A30EE600A80ED110AD0ED110A9FED46
:1050C000291A60EE810AB0EE600A0B21214800889F
:1050D00003F0F8FCB7E01CB31D4890F8400000BB9B
:1050E0001B4890ED110A10EE101A0846FBF7B2FCAF
:1050F00041EC190B1FEDF00B53EC102BFBF752FB9F
:1051000041EC180BFBF7D2FC114948640846D0ED7E
:10511000110AB0EE600A0B210E48008803F0D2FCA1
:1051200015E00B4890ED110ADFED0D0A30EE200A74
:1051300080ED110AD0ED110A9FED0A1A60EE810A86
:10514000B0EE600A0B210348008803F0BBFC7AE054
:10515000A4000020140200209A9999999999B93FC6
:1051600061248D3DC729684134B3F94890ED120A96
:1051700010EE101A0846FBF76DFC41EC180B1FED02
:105180000A0B53EC102BFBF779FC2CD2F04890F86B
:10519000400090B9EE4890ED120ADFEDEE0A30EED5
:1051A000600A80ED120AD0ED120AB0EE600A2021EA
:1051B000E948008803F086FC15E0E54890ED120A06
:1051C0005FED190A30EE600A80ED120AD0ED120A86
:1051D0001FED1C1A60EE810AB0EE600A2021DE4845
:1051E000008803F06FFC2EE064B3D94890F84000CB
:1051F00090B9D74890ED120ADFEDD60A30EE200ABA
:1052000080ED120AD0ED120AB0EE600A2021D248D9
:10521000008803F057FC15E0CD4890ED120A5FEDD1
:10522000300A30EE200A80ED120AD0ED120A1FED8E
:10523000331A60EE810AB0EE600A2021C648008869
:1052400003F040FC00BF00BF6BE3A81E142814D27B
:10525000DFE800F00ABF182414BF30BFBF48BF60AA
:105260007890BFBF9ABFBFAD0B20BC490870042027
:10527000BB4908700F2003F03BFBAAE00CB1FFF71D
:105280006DF9A6E04CB1B74890ED040AB04880ED46
:10529000080A9FEDB50A80ED090A9AE04CB1B148C1
:1052A00090ED040AAA4880ED0A0AB1EE040A80EDE6
:1052B0000B0A8EE0ACB1AB48007D012811D1A448A7
:1052C00090ED0C0AF7EE000A30EE600A80ED0C0A51
:1052D000D0ED0C0AB0EE600A13219F48008803F05D
:1052E000CBFB76E0ACB19F48007D012811D19848F6
:1052F00090ED0C0AF7EE000A30EE200A80ED0C0A61
:10530000D0ED0C0AB0EE600A13219348008803F038
:10531000B3FB5EE0ACB19348407D012811D18C48CD
:1053200090ED0E0AF7EE000A30EE600A80ED0E0AEC
:10533000D0ED0E0AB0EE600A14218748008803F011
:105340009BFB46E0ACB18748407D012811D18048E5
:1053500090ED0E0AF7EE000A30EE200A80ED0E0AFC
:10536000D0ED0E0AB0EE600A14217B48008803F0ED
:1053700083FB2EE00E2079490870042078490870DC
:105380000F2003F0B5FA24E084B1012075490875B7
:1053900000204875012212216F48008803F0DFF9D0
:1053A000002215216C48008803F0D9F911E084B17E
:1053B00000206C49087501204875002212216648BA
:1053C000008803F0CCF9012215216348008803F01E
:1053D000C6F900BFA5E2072D0BD0092D13D103207C
:1053E0005E49087005205E4908700F2003F080FABE
:1053F00009E00B20594908700520594908700F2011
:1054000003F076FA00BF00BF8BE2012D04D0022D1D
:1054100003D0032D09D104E000BF0CB102F0A0FEBF
:1054200003E00CB1FFF79AF800BF00BF79E2012D4D
:1054300004D0022D03D0032D09D104E000BF0CB12C
:1054400002F08EFE03E00CB1FFF788F800BF00BF4A
:1054500067E2012D04D0022D03D0032D0AD101E013
:1054600000BF07E02CB1002040490870022003F083
:105470003FFA00BF00BF54E22846132D7ED00CDC5B
:105480000F282ED004DC022811D0032818D122E0E6
:10549000102836D0112813D146E0143809280FD22D
:1054A000DFE800F07F92A5BEBEBEB8BE0F000B20A5
:1054B0002A4908700A202A4908700F2003F018FAB8
:1054C000AEE00E20254908700A20254908700F20FB
:1054D00003F00EFAA4E00020254908702549088051
:1054E0009EE01CB101202249087002E00020204902
:1054F00008701F4802780F211748008803F02FF921
:105500008EE034B11A48007818B101211A4881752B
:1055100002E00021184881751748827D10210E484D
:10552000008803F01CF97BE034B11148007818B111
:1055300001211148817402E000210F4881740E4856
:10554000827C11210448008803F009F968E015E025
:10555000A4000020CDCC4C3D1402002029020020E4
:105560002A020020D00700200000000025020020B1
:1055700060020020260200209C03002034B1EB488A
:10558000007818B10121EA48817202E00021E84860
:105590008172E748827A1321E648008803F0DFF839
:1055A0003EE034B1E148007818B10121E048817350
:1055B00002E00021DE488173DD48827B1421DD4852
:1055C000008803F0CCF82BE034B1D848007818B14B
:1055D0000121D748817102E00021D5488171D4486A
:1055E00082791521D348008803F0B9F818E034B166
:1055F000CE48007818B10120CD49887002E0002023
:10560000CB498870CA4882781621CA48008803F0BE
:10561000A6F805E00020C5490870C749088000BF0A
:1056200000BF7EE1042D1AD006DC012D0BD0022D27
:105630000AD0032D61D111E0052D29D0062D41D0CE
:105640000F2D5AD158E058E00320BC4908700B20B8
:10565000BB4908700F2003F04BF94EE04DE0B9480C
:1056600090F83E0198B194B10021B64880F83E11FF
:1056700001220421304603F072F800220521304651
:1056800003F06DF800220621304603F068F834E09C
:10569000AC4890F83E01012813D094B10121A948EB
:1056A00080F83E1100220421304603F058F8012210
:1056B0000521304603F053F800220621304603F05E
:1056C0004EF81AE09F4890F83E01022813D094B19A
:1056D00002219C4880F83E1100220421304603F04C
:1056E0003EF800220521304603F039F80122062158
:1056F000304603F034F800E000BF00BF11E1012D97
:1057000004D0022D03D0032D22D11DE000BFD4B15F
:1057100002F026FD8B4890F83E018B4909788842BB
:1057200011D071B600BFBFF34F8F8848006800F4F6
:10573000E06087490843001D84490860BFF34F8F2C
:1057400000BF00BFFEE703E00CB1FEF707FF00BF9C
:1057500000BFE6E01F2D06D0202D0FD0212D19D03F
:10576000222D2FD122E014217648DA30FAF7D8FD25
:1057700078497448DA30FAF7DEFD23E014217148E5
:10578000DA30FAF7CDFD734918316E48DA30FAF79E
:10579000D2FD17E014216B48DA30FAF7C1FD6D49EC
:1057A00030316848DA30FAF7C6FD0BE0142165485D
:1057B000DA30FAF7B5FD674948316248DA30FAF76E
:1057C000BAFD00BF00BFACE0012D04D0042D32D0E3
:1057D000052D3FD130E06CB35F480078012808D137
:1057E00014215E48FAF79CFD5D4A5EA15B4805F016
:1057F0000BF85D48007801280AD11421574814306D
:10580000FAF78EFD594A57A15448143004F0FCFFB2
:1058100002F0A6FC0020504908705349087014217A
:105820004F48FAF77DFD14215048FAF779FD022020
:1058300003F05EF80EE000BF64B100204649087036
:105840004949087014214648FAF76AFD142147486F
:10585000FAF766FD00BF64E0032D02D0042D5ED18F
:105860004FE0E4B30027354800780E2803D03348D2
:10587000007804280CD1394914313D48FAF780FDED
:1058800020B13C493A48FAF77BFD60B901270AE0AC
:1058900032493748FAF774FD20B137493448FAF7EE
:1058A0006FFD00B90127012F08D12448007803F0CB
:1058B0001FF82248007800F0A1F807E0204800789F
:1058C00003F016F81E48007800F098F800200190C8
:1058D00002900390049029A222A101A800E00FE009
:1058E00004F092FF01AA02210F2003F099F8144856
:1058F00000781249087014211D48FAF711FD00BF05
:105900000DE05CB10E48007802F0F2FF0C48007820
:105910000849088014211648FAF702FD00BF00BFAD
:1059200000BF00BF05B0BDEC048BF0BD60020020DD
:105930009C030020140200202602002029020020DF
:105940002A020020A4000020280200200CED00E024
:105950000000FA052D0800202B020020E4010020A1
:10596000F40F0020257300002C02002008100020F6
:105970001C100020410200202D0200200000000029
:1059800070477047704770472DE9F04707460C464F
:1059900015461E46DDE9099ADDF82080384600F0FC
:1059A00097FD154981F85500204600F091FD1249F8
:1059B00081F85600284600F08BFD0F4981F857000A
:1059C000304600F085FD0C4981F85800404600F053
:1059D0007FFD094981F85900484600F079FD0649E4
:1059E00081F85A00504600F073FD401CC1B20248D5
:1059F00080F85B10BDE8F087D007002010B50446A2
:105A0000EE4804800020FCF7B9F90120FCF7B6F954
:105A1000042C03D00020EA49087548750A2C02D0EE
:105A20000020E8490870022C02D00020E6490880D6
:105A3000102C09D2DFE804F008090A1BEFEEEDECA8
:105A400008EBEAE9E8E7E6E5B3E1B2E1DF4890F820
:105A500040201521D9480088FBF7A8FDDB4890F8C5
:105A600040201621D5480088FBF7A0FDA1E1D748CA
:105A700090F840201621D1480088FBF797FDD348C5
:105A80000078012800D100E0002002460421CB4824
:105A9000008802F064FECD480078012801D0012082
:105AA00000E0002002460521C448008802F057FEAD
:105AB000C648007C012800D100E0002002460621F3
:105AC000BE48008802F04BFEC048007C012801D08F
:105AD000012000E0002002460721B848008802F0BB
